:03000000020B5E92
:0C0B5E00787FE4F6D8FD75813E0208E9BE
:03002300020800D0
:10080000C0E0C0F0C083C082C0D075D000C000C0BE
:1008100001C002C003C004C005C006C00730991360
:10082000C299E52B6406600BAF2B74392FF8E6F5FF
:0608300099052B3098250C
:1008360085990EAF2174362FF8A60E0521C298E5CC
:1008460021B40311752100E536B4FF09AF377E00E8
:05085600AD38120B415A
:10085B00D007D006D005D004D003D002D001D000F1
:0B086B00D0D0D082D083D0F0D0E0329B
:03000B00020A9650
:100A9600C0E0C0D0740A250BF50BB42806750B0010
:100AA600759000E508B50B037590FFD0D0D0E03205
:100B4100EF64014E7004750A0122E4F50A8D082252
:100A4B00750A01758922758C06758A06758DFD757B
:100A5B008BFD759850E4F587C299C298D2A9D2AC98
:070A6B00D2AFD28CD28E2223
:1008E900120A4B7D427F90120AD17F90120AB68F6D
:1008F900091208767539FF85313A85303B85233CE5
:1009090085223D85093E7B007A007939120A17E56F
:100919000A6027E509D394E64005750828801BE598
:1009290009D3948C4005750814800FE509D39464A4
:10093900400575080A8003E4F5087F207E4E120BF6
:030949000380A088
:100B1A00D2A100D2A00000000000C2A10000000083
:060B2A0000C2A000002241
:100B3000C2A100D2A00000000000D2A1000000006D
:010B40002292
:1009DB00E4FEEFA806088002C333D8FC30E704D24C
:1009EB00A18002C2A100D2A00000000000C2A00E94
:1009FB00BE08DF0000D2A10000D2A000000030A191
:0B0A0B0004C2008002D200C2A0000064
:010A160022BD
:100A7200E4FFD2A1FE00C2A00000000000D2A0004C
:100A820000EF25E0FF30A1010F00000EBE08E6C214
:030A9200A00000C1
:010A9500223E
:100AEB00200104C2A18002D2A1000000D2A000000C
:080AFB00000000C2A00000226F
:100AB600120B1AEF04FF1209DB2000037F0022123B
:0A0AC6000A72D201120AEB120B3083
:010AD0002203
:100AD100120B1A1209DB200002C322AF051209DB37
:0A0AE100200002C322120B30D322C2
:100A1700120995F5399000011209AEF53A900002D6
:100A27001209AEF53B9000031209AEF53C900004A5
:100A37001209AEF53D9000051209AEF53E752B0182
:040A47008539992232
:10094C00E4F50C752A0220A207AF2A052AEF70F6EF
:10095C00120B51120B51120B51E4F52F30A20375EF
:10096C002F01752A0230A207AF2A052AEF70F6E58F
:10097C002A64016013E53525E0F535E52F42350590
:08098C000CE50CC3940840BB0C
:010994002240
:10087600C2A27FB47E00120B03D2A2120B51120B3E
:1008860051120B51120B51D2A220A256752A0220E8
:10089600A207AF2A052AEF70F6752A0230A207AF23
:1008A6002A052AEF70F612094C85353212094C8555
:1008B600353312094C85352412094C853525120924
:1008C6004C85352ED2A2E524252525322533F52F54
:1008D600B52E0F8532308533318524228525238533
:0308E6002E2C2293
:100B0300D3EF9400EE9400400DE4FD0DBD1BFCEF0C
:060B13001F70ED1E80EAD8
:010B190022B9
:0C0B5100150D150D150D150D150D150DCC
:010B5D002275
:10099500BB010689828A83E0225002E722BBFE0260
:0909A500E32289828A83E4932293
:1009AE00BB010CE58229F582E5833AF583E02250FE
:1009BE0006E92582F8E622BBFE06E92582F8E22248
:0D09CE00E58229F582E5833AF583E4932262
:00000001FF
