:03000000020AA54C
:0C0AA500787FE4F6D8FD75813A02093E26
:030023000209AA25
:1009AA00C0E0C0D075D000C000309912C299E52AC3
:1009BA006406600A7435252AF8E6F599052AD000F6
:0509CA00D0D0D0E032A6
:100A0E00758920758DFD758BFD759850E4F587C23F
:0A0A1E0099C298D2ACD2AFD28E225A
:10093E00120A0E7D427F90120A287F901209F38FC1
:10094E000A1208007535FF853036852F3785223817
:10095E00852139850A3A7B007A0079351209767F2E
:08096E00207E4E120A5A80CBD4
:100A7100D2A100D2A00000000000C2A1000000002D
:060A810000C2A0000022EB
:100A8700C2A100D2A00000000000D2A10000000017
:010A9700223C
:10090200E4FEEFA806088002C333D8FC30E704D225
:10091200A18002C2A100D2A00000000000C2A00E6D
:10092200BE08DF0000D2A10000D2A000000030A16A
:0B09320004C2008002D200C2A000003E
:01093D002297
:1009CF00E4FFD2A1FE00C2A00000000000D2A000F0
:1009DF0000EF25E0FF30A1010F00000EBE08E6C2B8
:0309EF00A0000065
:0109F20022E2
:100A4200200104C2A18002D2A1000000D2A00000B5
:080A5200000000C2A000002218
:1009F300120A71EF04FF1209022000037F00221282
:0A0A030009CFD201120A42120A873D
:010A0D0022C6
:100A2800120A71120902200002C322AF051209023C
:0A0A3800200002C322120A87D32215
:100976001208BCF5359000011208D5F53690000234
:100986001208D5F5379000031208D5F53890000403
:100996001208D5F5399000051208D5F53A752A01E1
:0409A60085359922D8
:10087300E4F50875290220A207AF290529EF70F6D0
:10088300120A98120A98120A98E4F52E30A20375F8
:100893002E0175290230A207AF290529EF70F6E56D
:1008A3002964016013E53425E0F534E52E4234056F
:0808B30008E508C3940840BBEE
:0108BB00221A
:10080000C2A27FB47E00120A5AD2A2120A98120A19
:1008100098120A98120A98D2A220A256752902208C
:10082000A207AF290529EF70F675290230A207AF9C
:10083000290529EF70F61208738534311208738583
:100840003432120873853423120873853424120855
:100850007385342DD2A2E523252425312532F52EAA
:10086000B52D0F85312F85323085232185242285B2
:030870002D2B220B
:100A5A00D3EF9400EE9400400DE4FD0DBD1BFCEFB6
:060A6A001F70ED1E80EA82
:010A70002263
:0C0A98001509150915091509150915099E
:010AA400222F
:1008BC00BB010689828A83E0225002E722BBFE023A
:0908CC00E32289828A83E493226D
:1008D500BB010CE58229F582E5833AF583E02250D8
:1008E50006E92582F8E622BBFE06E92582F8E22222
:0D08F500E58229F582E5833AF583E493223C
:00000001FF
